{
  "contractName": "EntityOfferRegistry",
  "abi": [
    {
      "anonymous": false,
      "inputs": [
        {
          "indexed": true,
          "internalType": "address",
          "name": "offerOwner",
          "type": "address"
        },
        {
          "indexed": true,
          "internalType": "uint256",
          "name": "offerIndex",
          "type": "uint256"
        }
      ],
      "name": "OfferAdded",
      "type": "event"
    },
    {
      "anonymous": false,
      "inputs": [
        {
          "indexed": true,
          "internalType": "address",
          "name": "offerOwner",
          "type": "address"
        },
        {
          "indexed": true,
          "internalType": "uint256",
          "name": "offerIndex",
          "type": "uint256"
        }
      ],
      "name": "OfferRetired",
      "type": "event"
    },
    {
      "anonymous": false,
      "inputs": [
        {
          "indexed": true,
          "internalType": "address",
          "name": "offerOwner",
          "type": "address"
        },
        {
          "indexed": true,
          "internalType": "uint256",
          "name": "offerIndex",
          "type": "uint256"
        },
        {
          "indexed": false,
          "internalType": "string",
          "name": "propertyName",
          "type": "string"
        },
        {
          "indexed": false,
          "internalType": "uint256",
          "name": "newValue",
          "type": "uint256"
        }
      ],
      "name": "OfferUpdated",
      "type": "event"
    },
    {
      "anonymous": false,
      "inputs": [
        {
          "indexed": true,
          "internalType": "address",
          "name": "oldOwner",
          "type": "address"
        },
        {
          "indexed": true,
          "internalType": "address",
          "name": "newOwner",
          "type": "address"
        }
      ],
      "name": "OwnerSet",
      "type": "event"
    },
    {
      "anonymous": false,
      "inputs": [
        {
          "indexed": true,
          "internalType": "uint256",
          "name": "offerIndex",
          "type": "uint256"
        },
        {
          "indexed": true,
          "internalType": "address",
          "name": "subscriptionOwner",
          "type": "address"
        }
      ],
      "name": "SubscriptionAccessed",
      "type": "event"
    },
    {
      "anonymous": false,
      "inputs": [
        {
          "indexed": true,
          "internalType": "uint256",
          "name": "offerIndex",
          "type": "uint256"
        },
        {
          "indexed": true,
          "internalType": "address",
          "name": "newSubscriptionOwner",
          "type": "address"
        },
        {
          "indexed": false,
          "internalType": "uint256",
          "name": "expirationTimestamp",
          "type": "uint256"
        },
        {
          "indexed": false,
          "internalType": "uint256",
          "name": "duration",
          "type": "uint256"
        }
      ],
      "name": "SubscriptionAdded",
      "type": "event"
    },
    {
      "anonymous": false,
      "inputs": [
        {
          "indexed": true,
          "internalType": "uint256",
          "name": "offerIndex",
          "type": "uint256"
        },
        {
          "indexed": true,
          "internalType": "address",
          "name": "subscriptionOwner",
          "type": "address"
        },
        {
          "indexed": false,
          "internalType": "uint256",
          "name": "oldExpirationTimestamp",
          "type": "uint256"
        }
      ],
      "name": "SubscriptionStopped",
      "type": "event"
    },
    {
      "anonymous": false,
      "inputs": [
        {
          "indexed": true,
          "internalType": "address",
          "name": "offerOwner",
          "type": "address"
        },
        {
          "indexed": false,
          "internalType": "uint256",
          "name": "amount",
          "type": "uint256"
        }
      ],
      "name": "Withdrawal",
      "type": "event"
    },
    {
      "inputs": [
        {
          "internalType": "address",
          "name": "newOwner",
          "type": "address"
        }
      ],
      "name": "changeOwner",
      "outputs": [],
      "stateMutability": "nonpayable",
      "type": "function"
    },
    {
      "inputs": [
        {
          "internalType": "uint256",
          "name": "",
          "type": "uint256"
        }
      ],
      "name": "entityOffers",
      "outputs": [
        {
          "internalType": "string",
          "name": "offerName",
          "type": "string"
        },
        {
          "internalType": "uint256",
          "name": "baseFee",
          "type": "uint256"
        },
        {
          "internalType": "uint256",
          "name": "minimumSubscriptionTime",
          "type": "uint256"
        },
        {
          "internalType": "bool",
          "name": "isRetired",
          "type": "bool"
        }
      ],
      "stateMutability": "view",
      "type": "function"
    },
    {
      "inputs": [],
      "name": "getOwner",
      "outputs": [
        {
          "internalType": "address",
          "name": "",
          "type": "address"
        }
      ],
      "stateMutability": "view",
      "type": "function"
    },
    {
      "inputs": [],
      "name": "offerCount",
      "outputs": [
        {
          "internalType": "uint256",
          "name": "",
          "type": "uint256"
        }
      ],
      "stateMutability": "view",
      "type": "function"
    },
    {
      "inputs": [
        {
          "internalType": "address",
          "name": "",
          "type": "address"
        },
        {
          "internalType": "uint256",
          "name": "",
          "type": "uint256"
        }
      ],
      "name": "subscribers",
      "outputs": [
        {
          "internalType": "uint256",
          "name": "",
          "type": "uint256"
        }
      ],
      "stateMutability": "view",
      "type": "function"
    },
    {
      "inputs": [
        {
          "internalType": "string",
          "name": "_offerName",
          "type": "string"
        }
      ],
      "name": "addOfferWithDefaults",
      "outputs": [],
      "stateMutability": "nonpayable",
      "type": "function"
    },
    {
      "inputs": [
        {
          "internalType": "string",
          "name": "_offerName",
          "type": "string"
        },
        {
          "internalType": "uint256",
          "name": "_baseFee",
          "type": "uint256"
        },
        {
          "internalType": "uint256",
          "name": "_minimumSubscriptionTime",
          "type": "uint256"
        }
      ],
      "name": "addCustomOffer",
      "outputs": [],
      "stateMutability": "nonpayable",
      "type": "function"
    },
    {
      "inputs": [],
      "name": "withdraw",
      "outputs": [],
      "stateMutability": "nonpayable",
      "type": "function"
    },
    {
      "inputs": [
        {
          "internalType": "uint256",
          "name": "_offerIndex",
          "type": "uint256"
        },
        {
          "internalType": "uint256",
          "name": "_baseFee",
          "type": "uint256"
        }
      ],
      "name": "setBaseFee",
      "outputs": [],
      "stateMutability": "nonpayable",
      "type": "function"
    },
    {
      "inputs": [
        {
          "internalType": "uint256",
          "name": "_offerIndex",
          "type": "uint256"
        },
        {
          "internalType": "uint256",
          "name": "_time",
          "type": "uint256"
        }
      ],
      "name": "setMinimumSubscriptionTime",
      "outputs": [],
      "stateMutability": "nonpayable",
      "type": "function"
    },
    {
      "inputs": [
        {
          "internalType": "uint256",
          "name": "_offerIndex",
          "type": "uint256"
        }
      ],
      "name": "retireOffer",
      "outputs": [],
      "stateMutability": "nonpayable",
      "type": "function"
    },
    {
      "inputs": [
        {
          "internalType": "uint256",
          "name": "_offerIndex",
          "type": "uint256"
        },
        {
          "internalType": "uint256",
          "name": "_time",
          "type": "uint256"
        }
      ],
      "name": "computeFee",
      "outputs": [
        {
          "internalType": "uint256",
          "name": "",
          "type": "uint256"
        }
      ],
      "stateMutability": "view",
      "type": "function"
    },
    {
      "inputs": [
        {
          "internalType": "uint256",
          "name": "_offerIndex",
          "type": "uint256"
        },
        {
          "internalType": "uint256",
          "name": "_time",
          "type": "uint256"
        }
      ],
      "name": "newSubscription",
      "outputs": [],
      "stateMutability": "payable",
      "type": "function"
    },
    {
      "inputs": [
        {
          "internalType": "address",
          "name": "_subscriptionOwner",
          "type": "address"
        },
        {
          "internalType": "uint256",
          "name": "_offerIndex",
          "type": "uint256"
        }
      ],
      "name": "stopSubscription",
      "outputs": [],
      "stateMutability": "nonpayable",
      "type": "function"
    },
    {
      "inputs": [
        {
          "internalType": "address",
          "name": "_subscriptionOwner",
          "type": "address"
        },
        {
          "internalType": "uint256",
          "name": "_offerIndex",
          "type": "uint256"
        }
      ],
      "name": "isSubscriptionActive",
      "outputs": [
        {
          "internalType": "bool",
          "name": "",
          "type": "bool"
        }
      ],
      "stateMutability": "view",
      "type": "function"
    },
    {
      "inputs": [
        {
          "internalType": "uint256",
          "name": "_offerIndex",
          "type": "uint256"
        }
      ],
      "name": "isMySubscriptionActive",
      "outputs": [
        {
          "internalType": "bool",
          "name": "",
          "type": "bool"
        }
      ],
      "stateMutability": "nonpayable",
      "type": "function"
    }
  ],
  "bytecode": "0x608060405234801561001057600080fd5b50336000806101000a81548173ffffffffffffffffffffffffffffffffffffffff021916908373ffffffffffffffffffffffffffffffffffffffff16021790555060008054906101000a900473ffffffffffffffffffffffffffffffffffffffff1673ffffffffffffffffffffffffffffffffffffffff16600073ffffffffffffffffffffffffffffffffffffffff167f342827c97908e5e2f71151c08502a66d44b6f758e3ac2f1de95f02eb95f0a73560405160405180910390a3612008806100db6000396000f3fe6080604052600436106100f35760003560e01c806344f182d51161008a5780638b8668df116100595780638b8668df14610330578063a6f9dae114610359578063ca1c9e1214610382578063d42f23ef146103ab576100f3565b806344f182d51461026f5780634a8843a11461028b5780635f5bafcc146102c8578063893d20e814610305576100f3565b80633de4b5fa116100c65780633de4b5fa146101a057806341a417db146101dd57806343528d7a1461020657806343fa5c2514610246576100f3565b80631115c24d146100f857806329739e36146101235780632ff284c21461014c5780633ccfd60b14610189575b600080fd5b34801561010457600080fd5b5061010d6103d4565b60405161011a9190611a65565b60405180910390f35b34801561012f57600080fd5b5061014a600480360381019061014591906115a1565b6103da565b005b34801561015857600080fd5b50610173600480360381019061016e91906116c6565b61063e565b6040516101809190611a65565b60405180910390f35b34801561019557600080fd5b5061019e6106b0565b005b3480156101ac57600080fd5b506101c760048036038101906101c291906115a1565b6107fb565b6040516101d491906118c2565b60405180910390f35b3480156101e957600080fd5b5061020460048036038101906101ff91906116c6565b610905565b005b34801561021257600080fd5b5061022d60048036038101906102289190611699565b610a47565b60405161023d94939291906118dd565b60405180910390f35b34801561025257600080fd5b5061026d60048036038101906102689190611699565b610b0c565b005b610289600480360381019061028491906116c6565b610cbb565b005b34801561029757600080fd5b506102b260048036038101906102ad9190611699565b610fa2565b6040516102bf91906118c2565b60405180910390f35b3480156102d457600080fd5b506102ef60048036038101906102ea91906115a1565b611005565b6040516102fc9190611a65565b60405180910390f35b34801561031157600080fd5b5061031a61102a565b60405161032791906118a7565b60405180910390f35b34801561033c57600080fd5b50610357600480360381019061035291906115e1565b611053565b005b34801561036557600080fd5b50610380600480360381019061037b9190611574565b611068565b005b34801561038e57600080fd5b506103a960048036038101906103a491906116c6565b6111b3565b005b3480156103b757600080fd5b506103d260048036038101906103cd919061162a565b6112f5565b005b60025481565b60008054906101000a900473ffffffffffffffffffffffffffffffffffffffff1673ffffffffffffffffffffffffffffffffffffffff163373ffffffffffffffffffffffffffffffffffffffff1614610468576040517f08c379a000000000000000000000000000000000000000000000000000000000815260040161045f90611949565b60405180910390fd5b8060025481106104ad576040517f08c379a00000000000000000000000000000000000000000000000000000000081526004016104a4906119d7565b60405180910390fd5b42600360008573ffffffffffffffffffffffffffffffffffffffff1673ffffffffffffffffffffffffffffffffffffffff1681526020019081526020016000206000848152602001908152602001600020541161053f576040517f08c379a000000000000000000000000000000000000000000000000000000000815260040161053690611989565b60405180910390fd5b6000600360008573ffffffffffffffffffffffffffffffffffffffff1673ffffffffffffffffffffffffffffffffffffffff168152602001908152602001600020600084815260200190815260200160002054905042600360003373ffffffffffffffffffffffffffffffffffffffff1673ffffffffffffffffffffffffffffffffffffffff1681526020019081526020016000206000858152602001908152602001600020819055508373ffffffffffffffffffffffffffffffffffffffff16837fae419dd6f741a5a16ba62cf854f3097f55863174d1fbff97409ad2f9e204ec30836040516106309190611a65565b60405180910390a350505050565b6000826002548110610685576040517f08c379a000000000000000000000000000000000000000000000000000000000815260040161067c906119d7565b60405180910390fd5b6001600085815260200190815260200160002060010154836106a79190611b71565b91505092915050565b60008054906101000a900473ffffffffffffffffffffffffffffffffffffffff1673ffffffffffffffffffffffffffffffffffffffff163373ffffffffffffffffffffffffffffffffffffffff161461073e576040517f08c379a000000000000000000000000000000000000000000000000000000000815260040161073590611949565b60405180910390fd5b600047905060008054906101000a900473ffffffffffffffffffffffffffffffffffffffff1673ffffffffffffffffffffffffffffffffffffffff166108fc829081150290604051600060405180830381858888f193505050501580156107a9573d6000803e3d6000fd5b503373ffffffffffffffffffffffffffffffffffffffff167f7fcf532c15f0a6db0bd6d0e038bea71d30d808c7d98cb3bf7268a95bf5081b65826040516107f09190611a65565b60405180910390a250565b6000816002548110610842576040517f08c379a0000000000000000000000000000000000000000000000000000000008152600401610839906119d7565b60405180910390fd5b826001600082815260200190815260200160002060030160009054906101000a900460ff16156108a7576040517f08c379a000000000000000000000000000000000000000000000000000000000815260040161089e90611a45565b60405180910390fd5b42600360008773ffffffffffffffffffffffffffffffffffffffff1673ffffffffffffffffffffffffffffffffffffffff16815260200190815260200160002060008681526020019081526020016000205410159250505092915050565b60008054906101000a900473ffffffffffffffffffffffffffffffffffffffff1673ffffffffffffffffffffffffffffffffffffffff163373ffffffffffffffffffffffffffffffffffffffff1614610993576040517f08c379a000000000000000000000000000000000000000000000000000000000815260040161098a90611949565b60405180910390fd5b8160025481106109d8576040517f08c379a00000000000000000000000000000000000000000000000000000000081526004016109cf906119d7565b60405180910390fd5b816001600085815260200190815260200160002060010181905550823373ffffffffffffffffffffffffffffffffffffffff167f877480aff1494aaa6c02b2902d735e9312fa29b9915798ea487137bb8b25f5ba84604051610a3a9190611a17565b60405180910390a3505050565b6001602052806000526040600020600091509050806000018054610a6a90611c89565b80601f0160208091040260200160405190810160405280929190818152602001828054610a9690611c89565b8015610ae35780601f10610ab857610100808354040283529160200191610ae3565b820191906000526020600020905b815481529060010190602001808311610ac657829003601f168201915b5050505050908060010154908060020154908060030160009054906101000a900460ff16905084565b60008054906101000a900473ffffffffffffffffffffffffffffffffffffffff1673ffffffffffffffffffffffffffffffffffffffff163373ffffffffffffffffffffffffffffffffffffffff1614610b9a576040517f08c379a0000000000000000000000000000000000000000000000000000000008152600401610b9190611949565b60405180910390fd5b806002548110610bdf576040517f08c379a0000000000000000000000000000000000000000000000000000000008152600401610bd6906119d7565b60405180910390fd5b816001600082815260200190815260200160002060030160009054906101000a900460ff1615610c44576040517f08c379a0000000000000000000000000000000000000000000000000000000008152600401610c3b90611a45565b60405180910390fd5b600180600085815260200190815260200160002060030160006101000a81548160ff021916908315150217905550823373ffffffffffffffffffffffffffffffffffffffff167ff734461ba4350aa54b3a726a97c02edf58df99b25bb9fc2e59084226515eede560405160405180910390a3505050565b816002548110610d00576040517f08c379a0000000000000000000000000000000000000000000000000000000008152600401610cf7906119d7565b60405180910390fd5b826001600082815260200190815260200160002060030160009054906101000a900460ff1615610d65576040517f08c379a0000000000000000000000000000000000000000000000000000000008152600401610d5c90611a45565b60405180910390fd5b6001600085815260200190815260200160002060020154831015610dbe576040517f08c379a0000000000000000000000000000000000000000000000000000000008152600401610db5906119f7565b60405180910390fd5b42600360003373ffffffffffffffffffffffffffffffffffffffff1673ffffffffffffffffffffffffffffffffffffffff16815260200190815260200160002060008681526020019081526020016000205410610e50576040517f08c379a0000000000000000000000000000000000000000000000000000000008152600401610e4790611929565b60405180910390fd5b34610e5b858561063e565b14610e9b576040517f08c379a0000000000000000000000000000000000000000000000000000000008152600401610e9290611969565b60405180910390fd5b8242610ea79190611b1b565b600360003373ffffffffffffffffffffffffffffffffffffffff1673ffffffffffffffffffffffffffffffffffffffff1681526020019081526020016000206000868152602001908152602001600020819055503373ffffffffffffffffffffffffffffffffffffffff16847fd7eb80147f97a8d62f27ddb581b67e5436d23a8860285995cadc1453bf95bd2c600360003373ffffffffffffffffffffffffffffffffffffffff1673ffffffffffffffffffffffffffffffffffffffff16815260200190815260200160002060008881526020019081526020016000205486604051610f94929190611a80565b60405180910390a350505050565b600080610faf33846107fb565b90508015610ffc573373ffffffffffffffffffffffffffffffffffffffff16837f8742488b3888a0d84d6d266f962992746e9690816c95dfc99fe5e70f45e68ecf60405160405180910390a35b80915050919050565b6003602052816000526040600020602052806000526040600020600091509150505481565b60008060009054906101000a900473ffffffffffffffffffffffffffffffffffffffff16905090565b6110658164174876e8006107086112f5565b50565b60008054906101000a900473ffffffffffffffffffffffffffffffffffffffff1673ffffffffffffffffffffffffffffffffffffffff163373ffffffffffffffffffffffffffffffffffffffff16146110f6576040517f08c379a00000000000000000000000000000000000000000000000000000000081526004016110ed90611949565b60405180910390fd5b8073ffffffffffffffffffffffffffffffffffffffff1660008054906101000a900473ffffffffffffffffffffffffffffffffffffffff1673ffffffffffffffffffffffffffffffffffffffff167f342827c97908e5e2f71151c08502a66d44b6f758e3ac2f1de95f02eb95f0a73560405160405180910390a3806000806101000a81548173ffffffffffffffffffffffffffffffffffffffff021916908373ffffffffffffffffffffffffffffffffffffffff16021790555050565b60008054906101000a900473ffffffffffffffffffffffffffffffffffffffff1673ffffffffffffffffffffffffffffffffffffffff163373ffffffffffffffffffffffffffffffffffffffff1614611241576040517f08c379a000000000000000000000000000000000000000000000000000000000815260040161123890611949565b60405180910390fd5b816002548110611286576040517f08c379a000000000000000000000000000000000000000000000000000000000815260040161127d906119d7565b60405180910390fd5b816001600085815260200190815260200160002060020181905550823373ffffffffffffffffffffffffffffffffffffffff167f877480aff1494aaa6c02b2902d735e9312fa29b9915798ea487137bb8b25f5ba846040516112e891906119a9565b60405180910390a3505050565b60008054906101000a900473ffffffffffffffffffffffffffffffffffffffff1673ffffffffffffffffffffffffffffffffffffffff163373ffffffffffffffffffffffffffffffffffffffff1614611383576040517f08c379a000000000000000000000000000000000000000000000000000000000815260040161137a90611949565b60405180910390fd5b60006001600060025481526020019081526020016000209050600260008154809291906113af90611cec565b9190505550838160000190805190602001906113cc929190611437565b5082816001018190555081816002018190555060016002546113ee9190611bcb565b3373ffffffffffffffffffffffffffffffffffffffff167f57803332da0ab20dd70cfe92744a695d78ce0c970552b02acd9741e8750c68db60405160405180910390a350505050565b82805461144390611c89565b90600052602060002090601f01602090048101928261146557600085556114ac565b82601f1061147e57805160ff19168380011785556114ac565b828001600101855582156114ac579182015b828111156114ab578251825591602001919060010190611490565b5b5090506114b991906114bd565b5090565b5b808211156114d65760008160009055506001016114be565b5090565b60006114ed6114e884611ace565b611aa9565b90508281526020810184848401111561150957611508611dc7565b5b611514848285611c47565b509392505050565b60008135905061152b81611fa4565b92915050565b600082601f83011261154657611545611dc2565b5b81356115568482602086016114da565b91505092915050565b60008135905061156e81611fbb565b92915050565b60006020828403121561158a57611589611dd1565b5b60006115988482850161151c565b91505092915050565b600080604083850312156115b8576115b7611dd1565b5b60006115c68582860161151c565b92505060206115d78582860161155f565b9150509250929050565b6000602082840312156115f7576115f6611dd1565b5b600082013567ffffffffffffffff81111561161557611614611dcc565b5b61162184828501611531565b91505092915050565b60008060006060848603121561164357611642611dd1565b5b600084013567ffffffffffffffff81111561166157611660611dcc565b5b61166d86828701611531565b935050602061167e8682870161155f565b925050604061168f8682870161155f565b9150509250925092565b6000602082840312156116af576116ae611dd1565b5b60006116bd8482850161155f565b91505092915050565b600080604083850312156116dd576116dc611dd1565b5b60006116eb8582860161155f565b92505060206116fc8582860161155f565b9150509250929050565b61170f81611bff565b82525050565b61171e81611c11565b82525050565b600061172f82611aff565b6117398185611b0a565b9350611749818560208601611c56565b61175281611dd6565b840191505092915050565b600061176a601e83611b0a565b915061177582611de7565b602082019050919050565b600061178d601383611b0a565b915061179882611e10565b602082019050919050565b60006117b0601e83611b0a565b91506117bb82611e39565b602082019050919050565b60006117d3602083611b0a565b91506117de82611e62565b602082019050919050565b60006117f6601783611b0a565b915061180182611e8b565b602082019050919050565b6000611819601c83611b0a565b915061182482611eb4565b602082019050919050565b600061183c603d83611b0a565b915061184782611edd565b604082019050919050565b600061185f600783611b0a565b915061186a82611f2c565b602082019050919050565b6000611882602383611b0a565b915061188d82611f55565b604082019050919050565b6118a181611c3d565b82525050565b60006020820190506118bc6000830184611706565b92915050565b60006020820190506118d76000830184611715565b92915050565b600060808201905081810360008301526118f78187611724565b90506119066020830186611898565b6119136040830185611898565b6119206060830184611715565b95945050505050565b600060208201905081810360008301526119428161175d565b9050919050565b6000602082019050818103600083015261196281611780565b9050919050565b60006020820190508181036000830152611982816117a3565b9050919050565b600060208201905081810360008301526119a2816117c6565b9050919050565b600060408201905081810360008301526119c2816117e9565b90506119d16020830184611898565b92915050565b600060208201905081810360008301526119f08161180c565b9050919050565b60006020820190508181036000830152611a108161182f565b9050919050565b60006040820190508181036000830152611a3081611852565b9050611a3f6020830184611898565b92915050565b60006020820190508181036000830152611a5e81611875565b9050919050565b6000602082019050611a7a6000830184611898565b92915050565b6000604082019050611a956000830185611898565b611aa26020830184611898565b9392505050565b6000611ab3611ac4565b9050611abf8282611cbb565b919050565b6000604051905090565b600067ffffffffffffffff821115611ae957611ae8611d93565b5b611af282611dd6565b9050602081019050919050565b600081519050919050565b600082825260208201905092915050565b6000611b2682611c3d565b9150611b3183611c3d565b9250827fffffffffffffffffffffffffffffffffffffffffffffffffffffffffffffffff03821115611b6657611b65611d35565b5b828201905092915050565b6000611b7c82611c3d565b9150611b8783611c3d565b9250817fffffffffffffffffffffffffffffffffffffffffffffffffffffffffffffffff0483118215151615611bc057611bbf611d35565b5b828202905092915050565b6000611bd682611c3d565b9150611be183611c3d565b925082821015611bf457611bf3611d35565b5b828203905092915050565b6000611c0a82611c1d565b9050919050565b60008115159050919050565b600073ffffffffffffffffffffffffffffffffffffffff82169050919050565b6000819050919050565b82818337600083830152505050565b60005b83811015611c74578082015181840152602081019050611c59565b83811115611c83576000848401525b50505050565b60006002820490506001821680611ca157607f821691505b60208210811415611cb557611cb4611d64565b5b50919050565b611cc482611dd6565b810181811067ffffffffffffffff82111715611ce357611ce2611d93565b5b80604052505050565b6000611cf782611c3d565b91507fffffffffffffffffffffffffffffffffffffffffffffffffffffffffffffffff821415611d2a57611d29611d35565b5b600182019050919050565b7f4e487b7100000000000000000000000000000000000000000000000000000000600052601160045260246000fd5b7f4e487b7100000000000000000000000000000000000000000000000000000000600052602260045260246000fd5b7f4e487b7100000000000000000000000000000000000000000000000000000000600052604160045260246000fd5b600080fd5b600080fd5b600080fd5b600080fd5b6000601f19601f8301169050919050565b7f537562736372697074696f6e20697320616c7265616479206163746976650000600082015250565b7f43616c6c6572206973206e6f74206f776e657200000000000000000000000000600082015250565b7f4f6e6c792066756c6c207061796d656e74732061726520616c6c6f7765640000600082015250565b7f537562736372697074696f6e20697320616c726561647920696e616374697665600082015250565b7f6d696e696d756d537562736372697074696f6e54696d65000000000000000000600082015250565b7f4f6666657220696e646578206973206f7574206f6620626f756e647300000000600082015250565b7f537562736372697074696f6e206e6565647320746f206265206c6f6e6765722060008201527f7468616e207468652063757272656e74206d696e696d756d2074696d65000000602082015250565b7f6261736546656500000000000000000000000000000000000000000000000000600082015250565b7f537562736372697074696f6e206f6666657220686173206265656e207265746960008201527f7265640000000000000000000000000000000000000000000000000000000000602082015250565b611fad81611bff565b8114611fb857600080fd5b50565b611fc481611c3d565b8114611fcf57600080fd5b5056fea264697066735822122003a8c986f93b5efd0eb53a8e4329d1a7d0bf3a34e56a45d1db1e35c0c07fe87064736f6c63430008060033",
  "immutableReferences": {},
  "source": "// SPDX-License-Identifier: GPL-3.0\r\npragma solidity >=0.7.0 <0.9.0;\r\n\r\nimport \"./Owner.sol\";\r\n\r\ncontract EntityOfferRegistry is Owner {\r\n\r\n    struct Offer {\r\n        string offerName;\r\n\r\n        uint baseFee;\r\n        uint minimumSubscriptionTime;\r\n\r\n        bool isRetired;\r\n    }\r\n\r\n    mapping(uint => Offer) public entityOffers;\r\n    uint public offerCount;\r\n\r\n    event OfferAdded(address indexed offerOwner, uint indexed offerIndex);\r\n    event OfferUpdated(address indexed offerOwner, uint indexed offerIndex, string propertyName, uint newValue);\r\n    event OfferRetired(address indexed offerOwner, uint indexed offerIndex);\r\n\r\n    // subscription owner -> (offer index -> expiration time)\r\n    mapping(address => mapping(uint => uint)) public subscribers;\r\n\r\n    event SubscriptionAdded(uint indexed offerIndex, address indexed newSubscriptionOwner, uint expirationTimestamp, uint duration);\r\n    event SubscriptionStopped(uint indexed offerIndex, address indexed subscriptionOwner, uint oldExpirationTimestamp);\r\n    event SubscriptionAccessed(uint indexed offerIndex, address indexed subscriptionOwner);\r\n\r\n    event Withdrawal(address indexed offerOwner, uint amount);\r\n\r\n    modifier isExistingOffer(uint _offerIndex) {\r\n        require(_offerIndex < offerCount, \"Offer index is out of bounds\");\r\n        _;\r\n    }\r\n    \r\n    modifier isNotRetired(uint _offerIndex) {\r\n        require(!entityOffers[_offerIndex].isRetired, \"Subscription offer has been retired\");\r\n        _;\r\n    }\r\n\r\n    function addOfferWithDefaults(string memory _offerName) public {\r\n        addCustomOffer(_offerName, 100 gwei, 30 minutes);\r\n    }\r\n\r\n    function addCustomOffer(string memory _offerName, uint _baseFee, uint _minimumSubscriptionTime) public isOwner {\r\n        Offer storage newOffer = entityOffers[offerCount];\r\n        offerCount++;\r\n\r\n        newOffer.offerName = _offerName;\r\n        newOffer.baseFee = _baseFee;\r\n        newOffer.minimumSubscriptionTime = _minimumSubscriptionTime;\r\n\r\n        emit OfferAdded(msg.sender, offerCount - 1);\r\n    }\r\n\r\n    function withdraw() public isOwner {\r\n        uint currentBalance = address(this).balance;\r\n        payable(owner).transfer(currentBalance);\r\n\r\n        emit Withdrawal(msg.sender, currentBalance);\r\n    }\r\n\r\n    function setBaseFee(uint _offerIndex, uint _baseFee) public isOwner isExistingOffer(_offerIndex) {\r\n        entityOffers[_offerIndex].baseFee = _baseFee;\r\n\r\n        emit OfferUpdated(msg.sender, _offerIndex, \"baseFee\", _baseFee);\r\n    }\r\n\r\n    function setMinimumSubscriptionTime(uint _offerIndex, uint _time) public isOwner isExistingOffer(_offerIndex) {\r\n        entityOffers[_offerIndex].minimumSubscriptionTime = _time;\r\n\r\n        emit OfferUpdated(msg.sender, _offerIndex, \"minimumSubscriptionTime\", _time);\r\n    }\r\n\r\n    function retireOffer(uint _offerIndex) public isOwner isExistingOffer(_offerIndex) isNotRetired(_offerIndex) {\r\n        entityOffers[_offerIndex].isRetired = true;\r\n\r\n        emit OfferRetired(msg.sender, _offerIndex);\r\n    }\r\n\r\n    function computeFee(uint _offerIndex, uint _time) public view isExistingOffer(_offerIndex) returns (uint)  {\r\n        return _time * entityOffers[_offerIndex].baseFee;\r\n    }\r\n\r\n    function newSubscription(uint _offerIndex, uint _time) public payable isExistingOffer(_offerIndex) isNotRetired(_offerIndex) {\r\n        require(_time >= entityOffers[_offerIndex].minimumSubscriptionTime, \"Subscription needs to be longer than the current minimum time\");\r\n        require(subscribers[msg.sender][_offerIndex] < block.timestamp, \"Subscription is already active\");\r\n        require(computeFee(_offerIndex, _time) == msg.value, \"Only full payments are allowed\");\r\n\r\n        subscribers[msg.sender][_offerIndex] = block.timestamp + _time;\r\n        \r\n        emit SubscriptionAdded(_offerIndex, msg.sender, subscribers[msg.sender][_offerIndex], _time);\r\n    }\r\n\r\n    function stopSubscription(address _subscriptionOwner, uint _offerIndex) public isOwner isExistingOffer(_offerIndex) {\r\n        require(subscribers[_subscriptionOwner][_offerIndex] > block.timestamp, \"Subscription is already inactive\");\r\n\r\n        uint oldExpirationTimestamp = subscribers[_subscriptionOwner][_offerIndex];\r\n        subscribers[msg.sender][_offerIndex] = block.timestamp;\r\n\r\n        emit SubscriptionStopped(_offerIndex, _subscriptionOwner, oldExpirationTimestamp);\r\n    }\r\n\r\n    function isSubscriptionActive(address _subscriptionOwner, uint _offerIndex) public view isExistingOffer(_offerIndex) isNotRetired(_offerIndex) returns (bool) {\r\n        return subscribers[_subscriptionOwner][_offerIndex] >= block.timestamp;\r\n    }\r\n\r\n    function isMySubscriptionActive(uint _offerIndex) public returns (bool) {\r\n        bool active = isSubscriptionActive(msg.sender, _offerIndex);\r\n\r\n        if (active) {\r\n            emit SubscriptionAccessed(_offerIndex, msg.sender);\r\n        }\r\n\r\n        return active;\r\n    }\r\n}",
  "sourcePath": "D:\\utcn\\thesis\\git\\license-thesis-2021\\contracts\\contracts\\EntityOfferRegistry.sol",
  "compiler": {
    "name": "solc",
    "version": "0.8.6+commit.11564f7e.Emscripten.clang"
  },
  "schemaVersion": "3.4.1",
  "updatedAt": "2021-06-26T17:37:51.685Z",
  "devdoc": {
    "kind": "dev",
    "methods": {
      "changeOwner(address)": {
        "details": "Change owner",
        "params": {
          "newOwner": "address of new owner"
        }
      },
      "getOwner()": {
        "details": "Return owner address ",
        "returns": {
          "_0": "address of owner"
        }
      }
    },
    "version": 1
  },
  "userdoc": {
    "kind": "user",
    "methods": {},
    "version": 1
  }
}